{
  "contractName": "MultiSigWallet",
  "abi": [
    {
      "inputs": [
        {
          "internalType": "address",
          "name": "_AdminAddress1",
          "type": "address"
        },
        {
          "internalType": "address",
          "name": "_AdminAddress2",
          "type": "address"
        }
      ],
      "stateMutability": "nonpayable",
      "type": "constructor"
    },
    {
      "stateMutability": "payable",
      "type": "fallback"
    },
    {
      "inputs": [
        {
          "internalType": "address",
          "name": "",
          "type": "address"
        }
      ],
      "name": "balances",
      "outputs": [
        {
          "internalType": "uint256",
          "name": "",
          "type": "uint256"
        }
      ],
      "stateMutability": "view",
      "type": "function"
    },
    {
      "inputs": [],
      "name": "wallet_balance",
      "outputs": [
        {
          "internalType": "uint256",
          "name": "",
          "type": "uint256"
        }
      ],
      "stateMutability": "view",
      "type": "function"
    },
    {
      "inputs": [
        {
          "internalType": "address",
          "name": "_nomOtherAddress",
          "type": "address"
        }
      ],
      "name": "NominateTheOtherAddress",
      "outputs": [],
      "stateMutability": "nonpayable",
      "type": "function"
    },
    {
      "inputs": [],
      "name": "Admin1CertifySend",
      "outputs": [],
      "stateMutability": "nonpayable",
      "type": "function"
    },
    {
      "inputs": [],
      "name": "Admin2CertifySend",
      "outputs": [],
      "stateMutability": "nonpayable",
      "type": "function"
    },
    {
      "inputs": [],
      "name": "NomOtherAddressCertifySend",
      "outputs": [],
      "stateMutability": "nonpayable",
      "type": "function"
    },
    {
      "inputs": [
        {
          "internalType": "uint256",
          "name": "_amount",
          "type": "uint256"
        },
        {
          "internalType": "address",
          "name": "_recipient",
          "type": "address"
        }
      ],
      "name": "sendEther",
      "outputs": [],
      "stateMutability": "nonpayable",
      "type": "function"
    },
    {
      "inputs": [],
      "name": "etherJustReceived",
      "outputs": [
        {
          "internalType": "uint256",
          "name": "",
          "type": "uint256"
        }
      ],
      "stateMutability": "view",
      "type": "function"
    },
    {
      "inputs": [],
      "name": "FirstAdminAddress",
      "outputs": [
        {
          "internalType": "address",
          "name": "",
          "type": "address"
        }
      ],
      "stateMutability": "view",
      "type": "function"
    },
    {
      "inputs": [],
      "name": "secondAdminAddress",
      "outputs": [
        {
          "internalType": "address",
          "name": "",
          "type": "address"
        }
      ],
      "stateMutability": "view",
      "type": "function"
    },
    {
      "inputs": [],
      "name": "ThirdSignatoryAddress",
      "outputs": [
        {
          "internalType": "address",
          "name": "",
          "type": "address"
        }
      ],
      "stateMutability": "view",
      "type": "function"
    }
  ],
  "bytecode": "0x608060405230600260006101000a81548173ffffffffffffffffffffffffffffffffffffffff021916908373ffffffffffffffffffffffffffffffffffffffff16021790555034801561005157600080fd5b50604051610f93380380610f9383398181016040528101906100739190610110565b816000806101000a81548173ffffffffffffffffffffffffffffffffffffffff021916908373ffffffffffffffffffffffffffffffffffffffff16021790555080600160006101000a81548173ffffffffffffffffffffffffffffffffffffffff021916908373ffffffffffffffffffffffffffffffffffffffff1602179055505050610195565b60008151905061010a8161017e565b92915050565b6000806040838503121561012357600080fd5b6000610131858286016100fb565b9250506020610142858286016100fb565b9150509250929050565b60006101578261015e565b9050919050565b600073ffffffffffffffffffffffffffffffffffffffff82169050919050565b6101878161014c565b811461019257600080fd5b50565b610def806101a46000396000f3fe6080604052600436106100a05760003560e01c8063760d33a311610064578063760d33a3146101c65780638b44115c146101f15780638cc66640146102085780638ee03b3314610233578063cb16d4a21461025e578063e954980014610287576100a1565b80631b1f9cfe146101075780631b4772061461011e5780631faab8831461013557806327e235e31461015e57806350a245c01461019b576100a1565b5b3460038190555034600a60003073ffffffffffffffffffffffffffffffffffffffff1673ffffffffffffffffffffffffffffffffffffffff16815260200190815260200160002060008282546100f79190610c96565b9250508190555047600481905550005b34801561011357600080fd5b5061011c6102b2565b005b34801561012a57600080fd5b50610133610329565b005b34801561014157600080fd5b5061015c60048036038101906101579190610a3a565b6103a0565b005b34801561016a57600080fd5b5061018560048036038101906101809190610a3a565b6105eb565b6040516101929190610c6a565b60405180910390f35b3480156101a757600080fd5b506101b0610603565b6040516101bd9190610c6a565b60405180910390f35b3480156101d257600080fd5b506101db610609565b6040516101e89190610bef565b60405180910390f35b3480156101fd57600080fd5b50610206610633565b005b34801561021457600080fd5b5061021d6106a8565b60405161022a9190610bef565b60405180910390f35b34801561023f57600080fd5b506102486106d1565b6040516102559190610c6a565b60405180910390f35b34801561026a57600080fd5b5061028560048036038101906102809190610a63565b6106db565b005b34801561029357600080fd5b5061029c6109e6565b6040516102a99190610bef565b60405180910390f35b600560009054906101000a900473ffffffffffffffffffffffffffffffffffffffff1673ffffffffffffffffffffffffffffffffffffffff163373ffffffffffffffffffffffffffffffffffffffff161461030c57600080fd5b6001600760166101000a81548160ff021916908315150217905550565b600160009054906101000a900473ffffffffffffffffffffffffffffffffffffffff1673ffffffffffffffffffffffffffffffffffffffff163373ffffffffffffffffffffffffffffffffffffffff161461038357600080fd5b6001600760156101000a81548160ff021916908315150217905550565b60008054906101000a900473ffffffffffffffffffffffffffffffffffffffff1673ffffffffffffffffffffffffffffffffffffffff163373ffffffffffffffffffffffffffffffffffffffff1614806104475750600160009054906101000a900473ffffffffffffffffffffffffffffffffffffffff1673ffffffffffffffffffffffffffffffffffffffff163373ffffffffffffffffffffffffffffffffffffffff16145b610486576040517f08c379a000000000000000000000000000000000000000000000000000000000815260040161047d90610c0a565b60405180910390fd5b60008054906101000a900473ffffffffffffffffffffffffffffffffffffffff1673ffffffffffffffffffffffffffffffffffffffff168173ffffffffffffffffffffffffffffffffffffffff16141580156105305750600160009054906101000a900473ffffffffffffffffffffffffffffffffffffffff1673ffffffffffffffffffffffffffffffffffffffff168173ffffffffffffffffffffffffffffffffffffffff1614155b801561056857503073ffffffffffffffffffffffffffffffffffffffff168173ffffffffffffffffffffffffffffffffffffffff1614155b6105a7576040517f08c379a000000000000000000000000000000000000000000000000000000000815260040161059e90610c2a565b60405180910390fd5b80600560006101000a81548173ffffffffffffffffffffffffffffffffffffffff021916908373ffffffffffffffffffffffffffffffffffffffff16021790555050565b600a6020528060005260406000206000915090505481565b60045481565b6000600560009054906101000a900473ffffffffffffffffffffffffffffffffffffffff16905090565b60008054906101000a900473ffffffffffffffffffffffffffffffffffffffff1673ffffffffffffffffffffffffffffffffffffffff163373ffffffffffffffffffffffffffffffffffffffff161461068b57600080fd5b6001600760146101000a81548160ff021916908315150217905550565b60008060009054906101000a900473ffffffffffffffffffffffffffffffffffffffff16905090565b6000600354905090565b60008054906101000a900473ffffffffffffffffffffffffffffffffffffffff1673ffffffffffffffffffffffffffffffffffffffff163373ffffffffffffffffffffffffffffffffffffffff1614806107825750600160009054906101000a900473ffffffffffffffffffffffffffffffffffffffff1673ffffffffffffffffffffffffffffffffffffffff163373ffffffffffffffffffffffffffffffffffffffff16145b806107da5750600560009054906101000a900473ffffffffffffffffffffffffffffffffffffffff1673ffffffffffffffffffffffffffffffffffffffff163373ffffffffffffffffffffffffffffffffffffffff16145b610819576040517f08c379a000000000000000000000000000000000000000000000000000000000815260040161081090610c4a565b60405180910390fd5b60011515600760149054906101000a900460ff16151514801561084f575060011515600760159054906101000a900460ff161515145b801561086e575060011515600760169054906101000a900460ff161515145b61087757600080fd5b8160088190555060085447101561088d57600080fd5b80600960006101000a81548173ffffffffffffffffffffffffffffffffffffffff021916908373ffffffffffffffffffffffffffffffffffffffff160217905550600854600a60003073ffffffffffffffffffffffffffffffffffffffff1673ffffffffffffffffffffffffffffffffffffffff168152602001908152602001600020600082825461091f9190610cec565b92505081905550600960009054906101000a900473ffffffffffffffffffffffffffffffffffffffff1673ffffffffffffffffffffffffffffffffffffffff166108fc6008549081150290604051600060405180830381858888f19350505050158015610990573d6000803e3d6000fd5b506000600760146101000a81548160ff0219169083151502179055506000600760156101000a81548160ff0219169083151502179055506000600760166101000a81548160ff0219169083151502179055505050565b6000600160009054906101000a900473ffffffffffffffffffffffffffffffffffffffff16905090565b600081359050610a1f81610d8b565b92915050565b600081359050610a3481610da2565b92915050565b600060208284031215610a4c57600080fd5b6000610a5a84828501610a10565b91505092915050565b60008060408385031215610a7657600080fd5b6000610a8485828601610a25565b9250506020610a9585828601610a10565b9150509250929050565b610aa881610d20565b82525050565b6000610abb601583610c85565b91507f61646d696e20616464726573732020616273656e7400000000000000000000006000830152602082019050919050565b6000610afb604983610c85565b91507f7573652061646472657373206f74686572207468616e2061646d696e2061647260008301527f657373657320616e64204d756c746953696757616c6c657420636f6e7472616360208301527f74206164647265737300000000000000000000000000000000000000000000006040830152606082019050919050565b6000610b87602583610c85565b91507f20796f752063616e6e6f7420696e6974696174652074686973207472616e736160008301527f6374696f6e0000000000000000000000000000000000000000000000000000006020830152604082019050919050565b610be981610d52565b82525050565b6000602082019050610c046000830184610a9f565b92915050565b60006020820190508181036000830152610c2381610aae565b9050919050565b60006020820190508181036000830152610c4381610aee565b9050919050565b60006020820190508181036000830152610c6381610b7a565b9050919050565b6000602082019050610c7f6000830184610be0565b92915050565b600082825260208201905092915050565b6000610ca182610d52565b9150610cac83610d52565b9250827fffffffffffffffffffffffffffffffffffffffffffffffffffffffffffffffff03821115610ce157610ce0610d5c565b5b828201905092915050565b6000610cf782610d52565b9150610d0283610d52565b925082821015610d1557610d14610d5c565b5b828203905092915050565b6000610d2b82610d32565b9050919050565b600073ffffffffffffffffffffffffffffffffffffffff82169050919050565b6000819050919050565b7f4e487b7100000000000000000000000000000000000000000000000000000000600052601160045260246000fd5b610d9481610d20565b8114610d9f57600080fd5b50565b610dab81610d52565b8114610db657600080fd5b5056fea264697066735822122018d5b7c9bba463bfb9e9fdc3497fee7f4c08e0d8707aafcc184f8e19dcb1688f64736f6c63430008000033",
  "immutableReferences": {},
  "source": "pragma solidity 0.8.0;\r\n\r\ncontract MultiSigWallet {\r\n    address AdminAddress1;\r\n    address AdminAddress2;\r\n    address contractAddress = address(this);\r\n    uint ether_just_received;\r\n    uint public wallet_balance;\r\n    address nomOtherAddress;\r\n    address confirmedOtherAdd;\r\n    address OtherAdd;\r\n    bool Admin1CertifyTrx;\r\n    bool Admin2CertifyTrx;\r\n    bool nomOtherAddressCertifyTrx;\r\n    uint amount;\r\n    address recipient;\r\n    \r\n    mapping (address => uint) public balances;\r\n    \r\n    \r\n    \r\n    \r\n    modifier RequireAdminAdd () {\r\n        require (msg.sender == AdminAddress1 || msg.sender == AdminAddress2, \"admin address  absent\");\r\n        _;\r\n    }\r\n     \r\n    modifier ValidCaller() {\r\n        require (msg.sender == AdminAddress1 || msg.sender == AdminAddress2 || msg.sender == nomOtherAddress, \" you cannot initiate this transaction\");\r\n        _;\r\n    }\r\n    \r\n    modifier approvedTrx(){\r\n        require( Admin1CertifyTrx == true && Admin2CertifyTrx == true && nomOtherAddressCertifyTrx == true);\r\n        _;\r\n    }\r\n    \r\n    \r\n    constructor( address _AdminAddress1, address _AdminAddress2) public {\r\n        AdminAddress1 = _AdminAddress1 ;\r\n        AdminAddress2 = _AdminAddress2 ;\r\n    }\r\n    \r\n    \r\n    function NominateTheOtherAddress ( address _nomOtherAddress) public RequireAdminAdd {\r\n        require(_nomOtherAddress != AdminAddress1 && _nomOtherAddress != AdminAddress2 && _nomOtherAddress != address(this), 'use address other than admin adresses and MultiSigWallet contract address' );\r\n        nomOtherAddress = _nomOtherAddress ;\r\n    }\r\n    \r\n    function Admin1CertifySend() public{\r\n        require ( msg.sender == AdminAddress1);\r\n        Admin1CertifyTrx = true;\r\n    }\r\n    \r\n    function Admin2CertifySend() public {\r\n        require ( msg.sender == AdminAddress2);\r\n        Admin2CertifyTrx = true;\r\n    }\r\n    \r\n    function NomOtherAddressCertifySend() public {\r\n        require ( msg.sender == nomOtherAddress);\r\n        nomOtherAddressCertifyTrx = true;\r\n    }    \r\n    \r\n    \r\n    function sendEther (uint _amount, address _recipient) public ValidCaller approvedTrx {\r\n        amount = _amount;\r\n        require (address(this).balance >= amount);\r\n        recipient =  _recipient;\r\n        balances[address(this)] -= amount;\r\n        payable(recipient).transfer(amount);\r\n        Admin1CertifyTrx = false;\r\n        Admin2CertifyTrx = false;\r\n        nomOtherAddressCertifyTrx = false;\r\n    }\r\n    \r\n    fallback ()  payable external{\r\n        \r\n        ether_just_received = msg.value;\r\n    \r\n        balances[address(this)] += msg.value;\r\n        wallet_balance = address(this).balance;\r\n    }\r\n    function etherJustReceived() public view returns ( uint){\r\n        return ether_just_received;\r\n        \r\n    }\r\n    \r\n    function FirstAdminAddress() public view returns (address){\r\n        return AdminAddress1;\r\n    }\r\n    \r\n    function secondAdminAddress () public view returns (address){\r\n        return AdminAddress2;\r\n    }\r\n    \r\n    function ThirdSignatoryAddress() public view returns (address){\r\n        return  nomOtherAddress;\r\n    }\r\n} ",
  "sourcePath": "C:/Users/HP/Desktop/multiSigWallet/contracts/MultiSigWallet.sol",
  "compiler": {
    "name": "solc",
    "version": "0.8.0+commit.c7dfd78e.Emscripten.clang"
  },
  "schemaVersion": "3.3.1",
  "updatedAt": "2021-01-21T17:20:43.846Z",
  "devdoc": {
    "kind": "dev",
    "methods": {},
    "version": 1
  },
  "userdoc": {
    "kind": "user",
    "methods": {},
    "version": 1
  }
}